:020000040000FA
:100000000C94B1000C94CE000C94CE000C94CE0055
:100010000C94CE000C94CE000C94CE000C94CE0028
:100020000C94CE000C94CE000C94CE000C94CE0018
:100030000C94CE000C94CE000C94CE000C94CE0008
:100040000C9486010C94CE000C94CE000C94CE003F
:100050000C94CE000C94CE000C94CE000C94CE00E8
:100060000C94CE000C94CE0000407A10F35A00A0FD
:10007000724E18090010A5D4E80000E87648170071
:1000800000E40B54020000CA9A3B000000E1F505B1
:10009000000080969800000040420F000000A086FB
:1000A00001000000102700000000E803000000002D
:1000B0006400000000000A000000000001000000D1
:1000C00000002C76D888DC674F0823DFC1DFAE59EB
:1000D000E1B1B796E5E3E453C63AE651997696E87E
:1000E000E6C28426EB898C9B62ED407C6FFCEFBC02
:1000F0009C9F40F2BAA56FA5F490055A2AF75C932D
:100100006B6CF9676DC11BFCE0E40D47FEF520E662
:10011000B500D0ED902E0300943577050080841E45
:10012000080000204E0A000000C80C333333330FA0
:10013000986E12831141EF8D2114893BE65516CF3D
:10014000FEE6DB18D1844B381BF77C1D901DA4BB49
:10015000E424203284725E228100C9F124ECA1E5FE
:100160003D2711241FBECFEFD8E0DEBFCDBF11E089
:10017000A0E0B1E0E4E9F2E102C005900D92AA32FC
:10018000B107D9F721E0AAE2B1E001C01D92A53381
:10019000B207E1F70E94D0010C9448090C940000CA
:1001A0003FB7F89480912F0190913001A0913101D7
:1001B000B091320126B5A89B05C02F3F19F00196DA
:1001C000A11DB11D3FBFBA2FA92F982F8827BC01B1
:1001D000CD01620F711D811D911D42E0660F771FD9
:1001E000881F991F4A95D1F708958F929F92AF92D9
:1001F000BF92CF92DF92EF92FF924B015C010E947F
:10020000D0006B017C010E94D0006C197D098E0921
:100210009F09683E734081059105A8F321E0821A89
:100220009108A108B10888EEC80E83E0D81EE11C31
:10023000F11C81149104A104B10429F7FF90EF90FF
:10024000DF90CF90BF90AF909F908F900895289AA5
:1002500061E070E080E090E00E94F5002898089549
:10026000CF93C82F2A9A299885B18F7085B995B1F7
:100270008C2F807F892B85B90E94270185B18F70D3
:1002800085B925B130E1C302C0011124822B85B9A3
:100290000E94270161E070E080E090E0CF910C9433
:1002A000F500CF93DF932A9A2998EC01899188234E
:1002B00019F00E943001FACFDF91CF910895CF93CA
:1002C000C82F2A98299885B18F7085B995B18C2F40
:1002D000807F892B85B90E942701809133019091FD
:1002E0003401892B61F085B18F7085B925B130E17A
:1002F000C302C0011124822B85B90E94270162E04C
:1003000070E080E090E0CF910C94F5001F920F9286
:100310000FB60F9211242F933F938F939F93AF9318
:10032000BF9380912B0190912C01A0912D01B09150
:100330002E0130912A0123E0230F2D3758F5019625
:10034000A11DB11D20932A0180932B0190932C01B4
:10035000A0932D01B0932E0180912F019091300137
:10036000A0913101B09132010196A11DB11D809380
:100370002F0190933001A0933101B0933201BF91CE
:10038000AF919F918F913F912F910F900FBE0F9042
:100390001F90189526E8230F0296A11DB11DD2CFFC
:1003A000CF93DF93CDB7DEB765970FB6F894DEBF76
:1003B0000FBECDBF789484B5826084BD84B5816062
:1003C00084BD85B5826085BD85B5816085BD809120
:1003D0006E00816080936E00109281008091810098
:1003E0008260809381008091810081608093810090
:1003F000809180008160809380008091B100846052
:100400008093B1008091B00081608093B0008091B2
:100410007A00846080937A0080917A008260809371
:100420007A0080917A00816080937A0080917A00CE
:10043000806880937A001092C1001092340110926B
:1004400033011FEF14B964E170E080E090E00E9496
:10045000F50080E20E945F0180E20E945F0180E877
:100460000E945F0161E070E080E090E00E94F50092
:1004700080E00E945F0180EC0E945F0161E070E01B
:1004800080E090E00E94F50080E00E945F0180E142
:100490000E945F0162E070E080E090E00E94F50061
:1004A00081E090E090933401809333018AB1807FA2
:1004B0008AB98AB1806F8AB91BB9AA24A394B12CD6
:1004C00094E2C92E91E0D92EBE016F5F7F4F7B0170
:1004D00020E0822E20E0922E7724739461E070E079
:1004E00080E090E00E94F500EFE0F1E030E020E0F5
:1004F0008BB1806F8BB94BB180813296B50102C050
:10050000660F771F8A95E2F7CB01809584238BB91C
:10051000A7E0B1E090E080E049B16C91129650E024
:1005200002C0559547956A95E2F740FD9FC04091FE
:100530000001413009F09CC01092000122303105C9
:1005400009F482C02330310509F487C02130310518
:1005500009F471C0009709F498C08130910509F43D
:1005600096C0029709F495C08FE30E94300187E19D
:1005700091E00E945101809106018F9380910501C5
:100580008F93DF92CF92FF92EF920E94A706C7014E
:100590000E94510180E48D8B8D8980688D8B8D89BF
:1005A0000E945F016091010170910201809103013D
:1005B00090910401870124E040E00E945D03C7019F
:1005C0000E94510187E291E00E94510161E070E0D8
:1005D00080E090E00E94F50081E00E945F01809140
:1005E0000501909106010197909306018093050102
:1005F00020E030E040E05FE3609101017091020192
:1006000080910301909104010E94E905609301012A
:100610007093020180930301909304010F900F9057
:100620000F900F900F900F908114910409F456CF02
:100630000E94000053CF009771F18130910569F15C
:10064000029769F180E391CF009759F181309105CC
:1006500051F1029751F18DE388CF009741F181303C
:10066000910539F1029739F18BE27FCF7092000149
:1006700001968430910509F04FCF2F5F3F4F243012
:10068000310509F035CF81E470CF87E36ECF84E385
:100690006CCF81E36ACF88E368CF85E366CF82E3DE
:1006A00064CF89E362CF86E360CF83E35ECF8FE2DE
:1006B0005CCF8AE25ACF8DE258CFEF920F931F930F
:1006C000CF93DF93E80134E047FD34E1042E000CC2
:1006D000550B57FF03C0519541955109E32E022F49
:1006E000242FAE010E947B03CE01DF91CF911F9199
:1006F0000F91EF900895A9E0B0E0E1E8F3E00C94E9
:10070000B8056A01F22EB02E102FFBE3AF2EA01613
:1007100008F41BE31F5F012F27E0AE014F5F5F4F1F
:100720000E94DA04BC018981982F9970913009F4F4
:100730003FC09BE2E1FC04C09E2D9170E0FC3AC0FA
:100740005E2D5071E82FE87083FF46C084E0911160
:1007500001C083E0EF2DE81B8F1508F0E0E0D60123
:100760008E2F20E2552351F1992329F0D6019C9335
:10077000C60101966C0196012D5F3F4FE2FE24C039
:100780008EE4D6018C9391E411969C931197129666
:100790008C93D9018E2F90E281111BC0E20FF32FB1
:1007A000F11D10828EEF9FEF2996ECE00C94D4059A
:1007B0009DE2C6CF90E2C4CF2D9381508111FCCF32
:1007C000CE0ED11CE0E0D0CF8EE6D6018C9391E620
:1007D000DBCF9D938150E0CF482F447082FF3DC016
:1007E00084E0911101C083E08F1510F4EF2DE81B18
:1007F000D6018E2F20E2552309F1992329F0D60145
:100800009C93C60101966C0196012D5F3F4FE2FE5D
:100810001BC089E4D6018C938EE411968C931197BA
:1008200086E412968C93D9018E2F90E2882309F4E6
:10083000B5CF9D938150FACF2D9381508111FCCF7C
:10084000CE0ED11CE0E0D9CF89E6D6018C938EE69E
:1008500011968C93119786E6E4CF9B0177FF02C037
:1008600030E020E0A1E0B0E0911102C0B0E0A0E0F3
:10087000F9013196AE0FBF1F8B2C912CBB2009F4D0
:1008800061C05401EFEFAE1ABE0AAA0DBB1DFA16E5
:100890001B0619F014F04F2D4A1B511188C0E3FCC0
:1008A00059C07601A42FB0E2A1114FC0C40ED11CD3
:1008B000992309F45BC040E0D6011196F6019083BC
:1008C0006D01552309F448C0012F060F9A81582F56
:1008D000507184FF03C0913309F4015010160CF0DD
:1008E00047C0093008F008E0EEE2FE2E5B01A01AD6
:1008F000B10885019194819491082F3F320729F422
:10090000D601FC92F60131966F016217730794F1DC
:10091000021713077CF5DB01A21BB30BAA24A394D7
:10092000B12CAC0EBD1EAA0DBB1D11968C91215091
:100930003109D601119628153905F4F0F6018083A6
:100940006D01DBCFB12CA12CA0CFF701B1937F01BA
:10095000A150AACF9111B0CFD601942F50E302C07D
:100960005D9391509111FCCFC40ED11C40E0ACCFEF
:1009700001E0BACF80E3DBCF6217730731F496331F
:1009800088F4953311F4552369F0F6018083FD0155
:10099000842F90E2811108C0A40FB11D1C9290E039
:1009A00080E002CF81E3F1CF91938150F3CF911199
:1009B00083CF8ACF283008F027E03327DA01990F58
:1009C000311D87FD916000966105710539F4326033
:1009D0002E5F3D9330E32A95E1F708959F3F30F075
:1009E00080387105610509F03C5F3C5F3D939130B3
:1009F00008F08068911DDF93CF931F930F93FF92B0
:100A0000EF92192F987F9695E92F96959695E90F75
:100A1000FF27EE53FF4F99273327EE24FF24A7012A
:100A2000E70105900894079428F4360FE71EF81E96
:100A3000491F511D660F771F881F991F0694A1F744
:100A40000590079428F4E70EF81E491F561FC11D94
:100A5000770F881F991F661F0694A1F705900794CA
:100A600028F4F80E491F561FC71FD11D880F991F64
:100A7000661F771F0694A1F70590079420F4490F8D
:100A8000561FC71FD81F990F661F771F881F069410
:100A9000A9F784911095177041F0D695C795579591
:100AA0004795F794E7941A95C1F7E8E6F0E0689463
:100AB0001590159135916591959105907FE273950B
:100AC000E118F10A430B560BC90BD009C0F7E10C32
:100AD000F11E431F561FC91FD01D7EF4703311F441
:100AE0008A95E6CFE894015030F0080F0AF4002709
:100AF000021708F4202F2395022F7A3328F079E388
:100B00007D932A95E9F710C07D932A9589F606947E
:100B100097956795379517951794E118F10A430B48
:100B2000560BC90BD00998F023957E9173957A33B3
:100B300008F070E37C932013B8F77E9170617D9389
:100B400030F0839571E37D9370E32A95E1F71124EA
:100B5000EF90FF900F911F91CF91DF91992787FD23
:100B6000909508952F923F924F925F926F927F924D
:100B70008F929F92AF92BF92CF92DF92EF92FF92AD
:100B80000F931F93CF93DF93CDB7DEB7CA1BDB0B59
:100B90000FB6F894DEBF0FBECDBF09942A883988FE
:100BA00048885F846E847D848C849B84AA84B98405
:100BB000C884DF80EE80FD800C811B81AA81B98111
:100BC000CE0FD11D0FB6F894DEBF0FBECDBFED0125
:100BD00008955058BB27AA270E9401060C946D0661
:100BE0000E945F0638F00E94660620F039F49F3FAD
:100BF00019F426F40C945C060EF4E095E7FB0C94D3
:100C00005606E92F0E947E0658F3BA17620773074B
:100C10008407950720F079F4A6F50C94A0060EF44D
:100C2000E0950B2EBA2FA02D0B01B90190010C01FC
:100C3000CA01A0011124FF27591B99F0593F50F414
:100C4000503E68F11A16F040A22F232F342F44276C
:100C5000585FF3CF469537952795A795F040539564
:100C6000C9F77EF41F16BA0B620B730B840BBAF034
:100C70009150A1F0FF0FBB1F661F771F881FC2F79F
:100C80000EC0BA0F621F731F841F48F487957795B3
:100C90006795B795F7959E3F08F0B0CF9395880F6D
:100CA00008F09927EE0F97958795089597F99F6714
:100CB00080E870E060E008959FEF80EC08950024E4
:100CC0000A941616170618060906089500240A94B1
:100CD00012161306140605060895092E0394000C37
:100CE00011F4882352F0BB0F40F4BF2B11F460FFC6
:100CF00004C06F5F7F4F8F4F9F4F089557FD9058EF
:100D0000440F551F59F05F3F71F04795880F97FBCF
:100D1000991F61F09F3F79F0879508951216130689
:100D20001406551FF2CF4695F1DF08C016161706B8
:100D30001806991FF1CF86957105610508940895ED
:100D4000E894BB2766277727CB0197F90895AEE093
:100D5000B0E0EDEAF6E00C94C0050D891E8986E04E
:100D60008C831A8309838FEF9FE79E838D83AE0167
:100D7000475E5F4F6F89788DCE0101960E94CA064B
:100D80002F813885020F131FF80110822E96E4E0A0
:100D90000C94DC05ABE0B0E0E0EDF6E00C94B205BD
:100DA0007C013B018A01FC0117821682838181FF4D
:100DB000C8C1CE0101965C01F7019381F30193FD57
:100DC000859193FF81913F01882309F453C18532B6
:100DD00039F493FD859193FF81913F01853229F488
:100DE000B70190E00E94BA08E7CF912C212C312C5A
:100DF000FFE1F31538F08B3211F190F4803209F1F4
:100E0000833229F137FC3CC020ED280F2A3050F501
:100E100036FE20C08AE0989E200D1124922E06C036
:100E20008D3291F0803371F7689430F8F30193FDBF
:100E3000859193FF81913F018111DACF21C06894A0
:100E400031F8689432F8F2CF689433F8EFCF6894B1
:100E500034F8ECCFEAE02E9E200D1124222E689467
:100E600035F8E4CF8E3229F436FC04C1689436F8A4
:100E7000DDCF8C3619F4689437F8D8CF8836B1F2C4
:100E8000982F9F7D95549330E0F08336A1F18337FE
:100E9000C1F1833509F063C02801F2E04F0E511C07
:100EA000F801C080D180692D70E036FC02C06FEF80
:100EB0007FEFC6010E94A4084C01689437F88201B4
:100EC0000AC00C5F1F4FFFE3F98388248394912CA1
:100ED0006501E89437F833FE2DC0522C811491043B
:100EE00071F5552009F468CFB70180E290E00E94C7
:100EF000BA085A94F6CFF801808189830E5F1F4F9C
:100F0000E4CF2801F2E04F0E511CF801C080D180DF
:100F1000692D70E036FC02C06FEF7FEFC6010E94C2
:100F2000AF084C018201D5CFB70180E290E00E946A
:100F3000BA082A942814190409F0B0F7CECFF601A4
:100F400037FC859137FE81916F01B70190E00E94D7
:100F5000BA0851105A94F1E08F1A9108BFCF843625
:100F600019F0893609F077C0F80137FE6BC060814F
:100F70007181828193810C5F1F4FF32DFF763F2E8D
:100F800097FF09C090958095709561957F4F8F4F21
:100F90009F4F689437F82AE030E0A5010E94EA08E4
:100FA000C82ECA188C2C432C36FE0CC0E89440F88E
:100FB000C91440F434FE05C032FC03C0F32DFE7E9C
:100FC0004F2E892C44FE95C0FE01EC0DF11D808151
:100FD000803309F087C0242D297E422E842D88700D
:100FE000582E43FC95C040FE8FC09C2C821418F4F0
:100FF0002C0C922C981844FE91C0B70180E390E02D
:101000000E94BA0842FE09C088E790E041FE02C093
:1010100088E590E0B7010E94BA08C91408F48AC0B4
:10102000CA94D12C9FEFC91AD90ACA0CDB1CF6014D
:1010300082916F01B70190E00E94BA08AC14BD0420
:10104000B1F74FCF60817181072E000C880B990B8F
:101050000E5F1F4F92CFD32CE894D4F82AE030E0F3
:10106000853739F1232D297FD22E8F3601F148F4AF
:101070008835A9F0F701868197812B96E2E10C94DF
:10108000CE05803749F08837A9F7D4FE02C06894AE
:10109000D2F820E130E00DC06894D4F8F6CF34FEE9
:1010A00003C0822F8660D82E20E132E002C028E003
:1010B00030E0F801D7FE0FC0608171818281938199
:1010C0000C5F1F4FA5010E94EA08C82ECA183D2CCC
:1010D000E89437F867CF6081718190E080E00E5F1F
:1010E0001F4FF0CF42FC02C0839478CF8394839447
:1010F00075CF842D867809F471CFF6CFB70180E2E1
:1011000090E00E94BA0883948214C0F3512C73CFEC
:10111000522C5818821408F46ECFF8CF842D86789C
:1011200009F47BCF8BE241FE80E247FC8DE2B70100
:1011300090E071CFB70180E390E00E94BA089A94E2
:101140006CCF8FEF9FEF99CFFC01059061507040FD
:101150000110D8F7809590958E0F9F1F0895FC0180
:101160006150704001900110D8F7809590958E0FD6
:101170009F1F08950F931F93CF93DF93182F092F6D
:10118000EB018B8181FD09C01FEF0FEF812F902FA5
:10119000DF91CF911F910F91089582FF14C02E818E
:1011A0003F818C819D81281739073CF4E881F981C2
:1011B000CF0101969983888310838E819F81019648
:1011C0009F838E83E3CFE885F985812F0995892B4D
:1011D000A1F3DACFFA01AA27283051F1203181F1A9
:1011E000E8946F936E7F6E5F7F4F8F4F9F4FAF4F2F
:1011F000B1E03ED0B4E03CD0670F781F891F9A1F42
:10120000A11D680F791F8A1F911DA11D6A0F711DF5
:10121000811D911DA11D20D009F468943F912AE001
:10122000269F11243019305D3193DEF6CF010895E9
:10123000462F4770405D4193B3E00FD0C9F7F6CF1A
:10124000462F4F70405D4A3318F0495D31FD4052E2
:10125000419302D0A9F7EACFB4E0A6959795879578
:1012600077956795BA95C9F7009761057105089557
:101270009B01AC010A2E0694579547953795279503
:10128000BA95C9F7620F731F841F951FA01D08959B
:10129000F894FFCF01000028410A0000000100027D
:1012A0000003000400050006000700206D6F616C5C
:0E12B00073687265696620002564006D000099
:107E0000112484B714BE81FFF0D085E080938100F7
:107E100082E08093C00088E18093C10086E0809377
:107E2000C20080E18093C4008EE0C9D0259A86E02C
:107E300020E33CEF91E0309385002093840096BBD3
:107E4000B09BFECF1D9AA8958150A9F7CC24DD24C4
:107E500088248394B5E0AB2EA1E19A2EF3E0BF2EE7
:107E6000A2D0813461F49FD0082FAFD0023811F036
:107E7000013811F484E001C083E08DD089C08234E0
:107E800011F484E103C0853419F485E0A6D080C0E4
:107E9000853579F488D0E82EFF2485D0082F10E0AE
:107EA000102F00270E291F29000F111F8ED06801E7
:107EB0006FC0863521F484E090D080E0DECF843638
:107EC00009F040C070D06FD0082F6DD080E0C81688
:107ED00080E7D80618F4F601B7BEE895C0E0D1E017
:107EE00062D089930C17E1F7F0E0CF16F0E7DF06D8
:107EF00018F0F601B7BEE89568D007B600FCFDCFD4
:107F0000A601A0E0B1E02C9130E011968C91119780
:107F100090E0982F8827822B932B1296FA010C0160
:107F200087BEE89511244E5F5F4FF1E0A038BF0790
:107F300051F7F601A7BEE89507B600FCFDCF97BE46
:107F4000E89526C08437B1F42ED02DD0F82E2BD052
:107F50003CD0F601EF2C8F010F5F1F4F84911BD097
:107F6000EA94F801C1F70894C11CD11CFA94CF0C13
:107F7000D11C0EC0853739F428D08EE10CD085E9AC
:107F80000AD08FE07ACF813511F488E018D01DD067
:107F900080E101D065CF982F8091C00085FFFCCF94
:107FA0009093C60008958091C00087FFFCCF809118
:107FB000C00084FD01C0A8958091C6000895E0E648
:107FC000F0E098E1908380830895EDDF803219F02E
:107FD00088E0F5DFFFCF84E1DECF1F93182FE3DFCA
:107FE0001150E9F7F2DF1F91089580E0E8DFEE27F6
:047FF000FF270994CA
:027FFE00040479
:00000001FF
